:10000000F01F0000150000100000000000000000BC
:1000100000207047F8B518482921490608620120D8
:10002000086000204861012088600F2008610020DE
:1000300008613F20C861FE20C8600420486000BFFE
:1000400000BF00BF00BFFFF7E3FF00900B4845680B
:1000500000260746002404E0A0003858A100705094
:10006000641C202CF8D300204560A84700BF00BFC7
:1000700000BF00BFF8BD0000A07F0000000400101A
:100080000000000000000000000000000000000070
:100090000000000000000000000000000000000060
:1000A0000000000000000000000000000000000050
:1000B0000000000000000000000000000000000040
:1002C000000300000000000000000000000000002B
:1002D0000003000000B900000003000000B90000A6
:1002E00000C0000000040000010001000100070040
:1002F000190F4341525245524200000001000000D4
:1003000000000000000000000000000000000000ED
:1003100000000000000000000000000000000000DD
:1003200000000000000000000000000000000000CD
:1003300000000000000000000000000000000000BD
:1003400000000000000000000000000000000000AD
:10035000000000000000000000000000000000009D
:10036000000000000000000000000000000000008D
:10037000000000000000000000000000000000007D
:10038000000000000000000000000000000000006D
:10039000000000000000000000000000000000005D
:1003A000000000000000000000000000000000004D
:1003B000000000000000000000000000000000003D
:1003C000000000000000000000000000000000002D
:1003D000000000000000000000000000000000001D
:1003E000000000000000000000000000000000000D
:1003F00000000000000000000000000000000000FD
:10040000F01F00007F060010000000000000000048
:1004100000000000000000000000000000000000DC
:1004200000000000000000000000000000000000CC
:100430000000000000000000F105001051790010DC
:10044000AD1100107D0600107D0600107D06001025
:100450007D0600106D07001071200010211700109C
:100460007D0600107D0600107D0600107D06001040
:100470007D060010E50600107D0600107D060010C8
:100480007D0600107D0600107D0600107D06001020
:100490007D0600107D0600107D0600107D06001010
:1004A0007D0600107D0600107D0600107D06001000
:1004B0007D0600107D0600107D0600107D060010F0
:1004C00003B40148019001BD011F000003B40148BD
:1004D000019001BDC100000000F002F800F040F8FA
:1004E0000CA030C8083824182D18A246671EAB4649
:1004F00054465D46AC4201D100F032F87E460F3ED4
:100500000FCCB6460126334200D0FB1AA246AB46BA
:1005100033431847B4AE000014AF0000103A02D3C2
:1005200078C878C1FAD8520701D330C830C101D594
:1005300004680C607047000000230024002500269A
:10054000103A01D378C1FBD8520700D330C100D58F
:100550000B6070471FB5C046C0461FBD10B510BD2B
:1005600008F0B8FB1146FFF7F5FF00F09EF808F021
:10057000D0FB03B4FFF7F2FF03BC01F078FD0000ED
:10058000FCB40022002300240025002600270629B1
:1005900002D4FCC00639FAE7002902D004C00139B0
:1005A000FAE7FCBC7047000002B472B60178013172
:1005B000017062B60139080002BC704702B472B61D
:1005C00001780139017062B6080002BC7047000072
:1005D00062B6704772B670471C3880F3098870475E
:1005E000014802490160704704ED00E0000000107E
:1005F000114B1968114A1268914216D0EFF3098025
:1006000020380860F0C044464D4656465F46F0C06C
:100610001A6010681030F0C8A046A946B246BB4622
:100620002038F0C8103080F30988054B002018707E
:100630000420404200470000240200002002000085
:100640000902000070B505460C46164602E00FCCC4
:100650000FC5103E102EFAD2082E02D303CC03C5CC
:10066000083E042E07D301CC01C5361F03E02178D4
:100670002970641C6D1C761EF9D270BDFEE710B5A2
:10068000FFF72AFF10BD10B506F0B3FE0F4B104A5E
:100690000021104807F013FA0F4B104A00211048B0
:1006A00007F00DFA06F0C8FE10BD10B500F0B0F965
:1006B000FFF706FF01F01DF900F042FC00F0A7FD76
:1006C00000F046FCFFF7DFFF012010BDC003000073
:1006D0000964000087690010700800000A2C0100FE
:1006E000C91A001010B506F04FFEFE48407807F01A
:1006F0009BF8FD490F20C86206F04BFE10BDF8B50F
:100700000246A032937DF94D5C009E0058235B5C4D
:100710002746002B07D0022B03D0042B03D0052B38
:1007200004D1CD6A05E0D27A022A15D0002000F06B
:10073000F3FFEF498020C8623004EE4A801C50610C
:100740002104891C55200006416129042943816147
:10075000916101210160F8BD0D6A9021415E481C44
:10076000E7D034460029E4D13C46E2E770B5E24CDC
:10077000C820055906F008FE0120552109068862A7
:100780002046A0300188891E0B0008F025FB0705D4
:1007900005232305050523002146803110228A5EAA
:1007A000002A10DD521E0A820088062803D100218B
:1007B000022000F00AFA204601F032FB29462046CA
:1007C000FFF79DFF09E00321C172C648007807F0DA
:1007D0002BF802E0002000F09FFF06F0DAFD70BD6C
:1007E00070B505460446203501F0BBFBC034607986
:1007F000A881012070BDF8B505460F4601262C469C
:10080000314600227F20A0343B0008F0E5FA0604C0
:10081000080C0F0A1113E2742075A1740DE0202258
:10082000F9E74022F7E7E074A27406E07722F2E7E6
:100830000226F0E7002000F06FFF3146284600F066
:1008400033FFF8BDF8B507460020085E0E46C00F1E
:1008500000F062FF30883C464042F080B07AA0341D
:1008600020803D46708880352882F0887864308901
:10087000E883F07A2072307BA0722020805D2073A4
:10088000307D6073707D2077B17DC520C155307992
:10089000A874F07EE073307EA88300F0A1FD407E56
:1008A000607200F09DFDC07D287601214020C1537B
:1008B000B07EFE21401C0840A075707E60753069D6
:1008C000A863002060772088801E030008F084FA67
:1008D0000727053434052205340000F081FD20305F
:1008E000807900280BD02088082808D06D8B707E76
:1008F00029464019401E07F079FC68436075F17D78
:100900007D48FFF778FF7C4801F0D6F9384601F0C2
:1009100028FB14E000217848FFF76DFF08E0022172
:100920007548FFF768FFF088800860770020287618
:100930003846FFF755FF02E0002000F0EDFE0120F1
:10094000F8BD10B501466D4807F046FC420A6649FD
:100950000120403948606448002303620F23C362CA
:100960000261FF224261826103224A600421016226
:1009700010BD70B50246604C0846A034130008F064
:100980002BFA0C422E1D42423C3E074242130B42C0
:10099000594800F094F839E00D46A17FA94235D0BE
:1009A000FFF7CFFFA57731E0CAB229214906486B8E
:1009B000FF231B0218401043486327E04E48FFF70F
:1009C00041FF00F00DFD4B4B40300021803B8A0081
:1009D0008458D2181462491C0829F8D316E0464DF1
:1009E000C82041510220E0720E46284601F018FA54
:1009F00031462846FFF783FE08E0012000E0002092
:100A000000F04BF802E0002000F086FE012070BDEF
:100A1000F8B50021084606F033FD324C0021207065
:100A2000084606F02DFD6070334C0125402005532B
:100A3000224604218032918320460221A030418049
:100A40008180214660310D8215800F278F832646D5
:100A50009781204601F026FC204600F089F801F03D
:100A60005AFC01F0D5F90121204600F01DFECC22F0
:100A700021463046FFF7E6FDA91E5520000681629B
:100A80001949CF621A4A1E49403A11621849802218
:100A9000CA6200220A630562F8BD10B50C46002840
:100AA00003D0084601F05CFB10BD00F099FC20303B
:100AB000407A0028F8D0204601F038FB10BD70B510
:100AC000054600F08DFC807F01F075FB00F088FC8E
:100AD0002030C079294601F0C6FB00F081FC808CF3
:100AE00010E000002001000080000052CDCDCDCDEF
:100AF000C00300550001005574080000005A62024E
:100B000033430000FFF71DFF284600F031F80024B2
:100B100000F066FC2030007A002806D0102400F097
:100B20005FFC2030007A01F0E1FA0848102181636F
:100B30000463074A1278002A01D0016300E00463CD
:100B400000F04EFC808CA035A87770BDC003005526
:100B50006F01000010B5012806D04F490846143037
:100B600001F0CEFA012010BD002000F0D5FDF9E71C
:100B700010B5FF2153221206044651600420106272
:100B8000516200239362D3621163444A5160444826
:100B9000106253629162414A403251601062536266
:100BA00091623E4A803251601062536291623B4AC8
:100BB000C03251601062536291620020FFF7CAFF99
:100BC0000620A034A071E07110BDF8B504460D46B2
:100BD000009100F005FC3348EE000778B000761C69
:100BE000B100761CB200761CB3009C46761CB300A4
:100BF0009E46761CB300761CB500761CB600002F0E
:100C00002AD0022C39D0032C25D15524009F24064C
:100C1000002F3BD0244F2763244F6763244FA763E3
:100C20001D4C343427581D484760615801621B48E9
:100C3000A1584030416061466158016270462158B8
:100C4000164880304160E158016214486159C03053
:100C50004160A1590162F8BD022C06D0032CFAD1E3
:100C6000154C144F27612762DAE71449124A0868C5
:100C700010611062C0430860F8BD104C0E4F6468EC
:100C80003C613C62E7430D4C6760BEE70C4F276355
:100C90000C4F67630C4FC2E75C910010000040539B
:100CA000555500006F010000BEEEEBCCC8EEBBEB6B
:100CB000EEEEEEEE0000F0FF4000005224010000D6
:100CC0008BBBB89995BBA8B8BBBBBBBB10B52421E7
:100CD000623007F07DFA012010BDF8B504460746E2
:100CE000054620379434787E6076387EA0760120E1
:100CF00020730020206128682080286DE07600F0B5
:100D00006FFB407D207500F06BFB408A208100F076
:100D100067FB007D607500F063FBC07F207100F011
:100D20005FFB20308079E07500F05AFB807D2076F3
:100D300028464030027E00212E46C943B436022A9E
:100D400023D0042A38D0052A1FD000F049FB007EAA
:100D50004042608000F044FB0078A07200F040FB4D
:100D6000807E20730620E072002030706035E061E4
:100D70002878002806D0012834D0022832D000205C
:100D800000F0CAFC0120E072F8BD0222A27261806C
:100D9000017FA175417F2181817F617500212175CE
:100DA0000622E272317021610121E161007E052895
:100DB000E8D10720A072E5E708226276387EA076A7
:100DC000012020766180A27220730620E07200204C
:100DD00030700321E061E1752021218104216175DA
:100DE0002075CFE700F0FCFA408A4000208100F037
:100DF000F7FA007D401C6075C4E70120704770B5AC
:100E000005460446403001774277FF21837701226F
:100E100005310A550221017694352046FFF75DFF22
:100E200029460220FFF7A5FD21460120FFF7A1FD7D
:100E300070BD70B505460446403001774277FF210A
:100E40008377012205310A55052101769435204624
:100E5000FFF743FF29460220FFF78BFD21460120C3
:100E6000FFF787FD70BD70B504460846FF210022DC
:100E700005310A55582108552646E06B94361D4623
:100E8000002806D12046FFF728FF31460220FFF751
:100E900070FD21460120FFF76CFD0446002D02D0B5
:100EA000002000F039FC204670BDF8B505469435A9
:100EB00004460E461746002B0BD00621104606F0BE
:100EC000C7FB002802D0002000F026FC384606F0C0
:100ED0007CFCFF2000210530015558200655204696
:100EE000FFF7FBFE29460220FFF743FD21460120C4
:100EF000FFF73FFDF8BD000070B5144C049E247848
:100F0000012C1BD05C1C65086D001524A406A16192
:100F1000E0610120A060521E11045A1E1143E160DD
:100F20006904891C21615904891C6161A0622060E7
:100F3000002E02D060680028FCDB70BD1225E4E7BB
:100F40000121152080068162016270477001000056
:100F50000849074808620948074901600849416093
:100F600008494017086007490748803908607047FA
:100F70000000C04000ED00E00140404000E400E01F
:100F80004040004080E100E0E1200000F8B54178F9
:100F900002780D021543FF4A81785268FE4F94464D
:100FA000803255819181EE1B0022FC4B0124BD4211
:100FB00071D00ADCFA4EAE1B0CD0FA4D102E0ED0BA
:100FC000112E42D0122E09D143E0012E06D0022E5E
:100FD00004D1A1E0604640308476C476A2E01022BD
:100FE0002A70042906D003290ED0022916D001291F
:100FF0001ED097E00279C178120289188AB2411D89
:10100000104605F0AEFE1CE00279C1781202891884
:101010008AB2411D104605F03CFF12E00279C1780A
:10102000120289188AB2411D104605F0FDFE08E043
:101030000279C178120289188AB2411D104605F062
:10104000AEFE00286EDB2C736CE0D74801296BD014
:1010500067E0D64DD64E002909D010290BD0D14BD0
:10106000D44ADB7811291ED0122934D05AE02A70D4
:101070001A7332704AE02C70C078002805D001281D
:1010800006D0022808D0032809D01A73327049E02C
:101090001C73347046E036E01C73022001E01C73C0
:1010A000032030703EE02C700179002B09D0C3780A
:1010B0000901194351808179407909010143118067
:1010C00030E0C37809011943118081794079090121
:1010D0000143518026E02C700179002B09D0C378A0
:1010E00009011943D1808179407909010143918037
:1010F00018E0C37809011943918081794079090189
:101100000143D1800EE0012904D01A73002005F0BC
:1011100059FA07E01C7305E0A748012904D01029FB
:1011200000D002700120F8BD0470FBE701228105A8
:10113000D203801A8003000E8200A048890D8058D7
:10114000002800D04018704710B5C2B29B4B000A6F
:101150004400203B1B5B934202D80020088010BD56
:10116000964C8000603C205880189A1A0A8010BD66
:10117000F0B505220124042512078426904B01288E
:1011800007D00027022808D0042808D0082808D152
:1011900009E080484160156001E0002903D0166035
:1011A0001C700120F0BD15601F70FAE770B585480E
:1011B000466A0021C943C162764DB00106D506F0EA
:1011C000E3F8287806F030FB06F0E3F87000800FB3
:1011D0001CD07C4C403C6068C007FCD07148007853
:1011E000122803D100210220FFF7C2FF69783046A0
:1011F00000F01DF802202060012020600C202062F9
:101200007148A062714820620020687070BD70B59E
:10121000604C00256C20656000F04DF80021657081
:10122000084606F02DF9207006F0CFFA70BDF8B52B
:10123000654E70783178050262480D434038406A47
:10124000FF218000800C01310C1A022C0CD030DD03
:10125000C800281A202816D200F000FA3046FFF7FE
:1012600095FEFFF73FFA24E04E480078122808D098
:1012700001210220FFF77CFF2146284600F03DF8BF
:1012800017E00021F5E701200003854211D2A8B242
:101290006946FFF759FF00280BD069460988A41E4C
:1012A000A14201DD69460C8069460A88B11C06F03E
:1012B00029FF0120F8BD30B58421052212071160F5
:1012C00001231361002414623E49022540390D6058
:1012D0000B600D610B617F231B021843D0610C2052
:1012E000086239488862394808623648611EC1621E
:1012F000C46231214906016230BD38B50446092077
:1013000080010025201A8C2805D200F06DF8001904
:10131000FF3831382DE0012109038C4204D2A0B2FC
:101320006946FFF711FF24E0A120621AC000824243
:1013300017D218488C424368186B01D0154618E044
:10134000002B49D017490978102912D0092910D04B
:10135000242242800022426047220270082242700A
:1013600007E00120C003201A884235D2A0B2FFF75F
:10137000DDFE002830D043191248042101601149D4
:10138000022240390A6101220A61052109078A60A7
:1013900083601DE02C01000013080000941C000075
:1013A00000080000401B0000CD010000CE0100003D
:1013B000CF010000D4010000D0010000F09800101F
:1013C00075010000C0000050400900000900000144
:1013D00002490160491E016038BD00000900FFFF9D
:1013E000A4487047A4487047A2487047A34900200A
:1013F00008607047F8B59F489E49427803466031BF
:1014000000252033552A7DD09C4A012610321570C4
:101410005522427003220270FF220573D5320282E8
:101420002022428204220275457502228275C5750A
:10143000027646768676C6760A220277427702469A
:10144000A0320A24147060244484782484840446DE
:10145000E0343227E7759E710527DF715D7286776C
:101460001D72403005704570854808604860CD6049
:101470000D6184484D618860834888618348C861F4
:101480008348086208468830824901608249416089
:10149000022050706420102390700A20D0703C20ED
:1014A00010710720107410462030E91E017055712C
:1014B0007820608002202076207032206070022028
:1014C00020716371A0710320E071142020820A2032
:1014D0002075A7744810A0754010607567481121E9
:1014E0001030008906F078FEE07432206076A7762E
:1014F0002820E076032020776577A6772046E577D9
:10150000203000E00CE03C2101704570877008211C
:10151000C17017210171072141711421817103E00C
:10152000807F042800D11D7253481F218E30017026
:101530001221417059490A8D82824A8DC2828A8D58
:101540000283CA8D42830B46203302461C7C203224
:1015500094705B7CD3700A8F828400228B182033B6
:1015600084189B7C521C2377062AF7D3002104E0C1
:101570004A00121815715571491C82788A42F7D8B1
:10158000F8BD30B53B480421017601753B480F2179
:101590002C3001804180502282806421C18014233C
:1015A0000381428183813C23C381052303754375F5
:1015B00003461E24283B9C8064425C80C824503330
:1015C0005C809C8008259D7155259D8205468B0079
:1015D000B8352B806B80284B0225723B5D70304BF9
:1015E0001B78012B0CD12F4B1D789623012D08D091
:1015F000022D05D18380C380018141818281C28116
:1016000030BD8480C480038143818181C18130BD2C
:1016100010B51848022303760422027517481E21CC
:101620002C3001804180C8218180C180AA2404819E
:10163000448164248481C481032404754275322466
:1016400028304480502484808271372282829030F6
:101650000180418008487238437010BD002007495E
:10166000024610310B18401CC0B21A730C28F9D373
:1016700070470000B01C0000C21D0000301B0000BD
:10168000CCCCCCCCCC0CCCCC2273000072011000A2
:10169000CDCDCDCD05070A1425426B96C0020010B2
:1016A000CE010000CF010000FEB504460120012953
:1016B0001FD0022923D0002000F02EF82546A035A7
:1016C0006946687C0E7A009AB04210D00F4B002118
:1016D00008460C27784317581F60801840685860E8
:1016E000491C8029F4D38034019860836E740720EC
:1016F000FEBD6946087206480090072004E00221FA
:101700006A461172034900910190D7E70002005523
:1017100000990010009F0010002800D1FEE77047DC
:1017200070B55720000644690021C9438161A107B3
:101730000FD405F029FE9D4DE00702D0287806F071
:1017400073F8200702D5687806F06EF805F021FEE0
:1017500070BDFF210231016070BDF8B5944C0128C5
:1017600010D002280ED00D462035032816D00528AB
:1017700007D160690C216956000C000489B2084346
:101780006061F8BDFFF72CFE203080790028F8D189
:10179000E068000C00044F30E060F8BDFFF720FE69
:1017A00020308079002804D1A06D000C00044F3057
:1017B000A065FFF715FEA0304079002805D17D48CF
:1017C0008169090C09042B318161687A012805D1EE
:1017D0007848C0300169090C0904016120680C21B6
:1017E0006956000C000489B20843206060690D212D
:1017F0006956000C000489B2084360616D4CC03C1E
:1018000060680A216C4E6956370C0A06120D30408A
:101810003940104309020843606020680B21695673
:1018200030400A06120D3940104309020843206077
:10183000FFF7D6FDFFF7D4FDE030007DA16B00017E
:1018400031400843A063FFF7CBFDE030007D594CE9
:1018500040420006050D803CA06930400543FFF77B
:10186000BFFDE030007D4042384000020543A561E5
:10187000FFF7B6FDE030017D4E48C030C161F8BDD4
:1018800070B54E4D0C4601280AD002281CD0032802
:1018900004D0042810D00020FFF73EFF012070BDC7
:1018A000FFF79EFDE8300168A9604068E860207895
:1018B000214600F02EF8F1E73E48C0300169090CDE
:1018C0000904491C0161E9E757213D480906086000
:1018D0000020420051190B69121953800969801CBC
:1018E000090C91800A28F4D334488038C068E0821B
:1018F000D4E710B50021084605F0C2FD2B49087059
:10190000572030490006C1600B2101612E498161D9
:1019100010BDF3B5044687002C481D267602C55934
:1019200081B0072C01D2012000E00020FFF7F4FE77
:1019300003204002854201D8012000E00020FFF78B
:10194000EBFE029820308446007AA0421CD0174853
:101950000021001DC059AA08864606E0880073468B
:101960001F58134BC0180760491C8A42F6D2002248
:101970000F48FF278137B94204D88B001B181A6023
:10198000491CF8E760460472029802990078FFF754
:10199000E4FE0120C0073146014357200006816064
:1019A00071194160FF2102310160FEBD3401000068
:1019B000003A0040803C00400FF000FFC00000579C
:1019C0000001010030000080FFFF000054AC001057
:1019D00070B5054604460E46B83501210320FFF7D1
:1019E0004FFF21462031087E401E2876487E6876CB
:1019F0003048E8613048286230486862294620460D
:101A000000F01DF832460121284600F010F80021B0
:101A10004034A17670BD10B5B8300322022100F029
:101A200006F8040001D1FFF777FE204610BD10B57F
:101A30000B46027001461846FFF722FF10BD10B595
:101A40000C46C36B01222034022B01D3627201E0E9
:101A50000021617205212173022161735A21095C01
:101A6000012902D0022903D101E0227300E0627350
:101A70000069134906F092FE06F040FF114909780B
:101A8000002904D010301E280BDD1E2009E0FFF7CE
:101A9000A7FCA03040781E28F7D8FFF7A1FCA030A3
:101AA0004078E07241B22020401A022800DA022079
:101AB000A07210BD802F00407C2900400C1800400F
:101AC0000000A041730100001B490120FFF750FBFB
:101AD00002F030FD03F05CFC02F06EFDFFF786FCC7
:101AE0001649174803F01FFE01F01FFE03F086FBA6
:101AF00005F093FA134E144C144D3146207805F03E
:101B0000A7FD002802D00020FFF706FE207805F090
:101B10005CFE094800F0BBFE0746FFF761FC007B56
:101B20000028EAD128780028E7D1002FE5D000214D
:101B30000220FFF71DFBE0E78C1800003C1C0000B2
:101B40005C1B00008096980002020000401B000011
:101B500010B5034640331C46DA770902504B114357
:101B6000CA1A994215D008DC4E4A891813D0502958
:101B700014D04D4A891809D110E0FF3AFF3A033AD0
:101B800011D0FF2A05D0FF3AFD3A07D00020FFF719
:101B9000C3FD012010BD01F00BFBFAE701F016F8C0
:101BA0008120E077F5E7FFF71BFC818C0B20FEF727
:101BB000E0FEEEE770B504464030C07F00263028D6
:101BC00004D00020FFF7A8FD304670BD0025E56376
:101BD000204601F028FB064601280BD0FFF700FC49
:101BE000FF3001308079001D01F0C0F9E06B401C2E
:101BF000E063EDE7E563FFF7F3FBFF30013045708D
:101C00002A49012008702A4908702A480570DBE734
:101C100070B504464030C07F81280AD083280ED09A
:101C2000842830D0852807D00020FFF775FD0120DB
:101C300070BD832281212EE0802285212BE0204669
:101C400001F0B5F8FFF7CCFBE0300178606C814221
:101C500002D2842283211EE0002810D0FFF7C0FBAF
:101C6000858C60342078002804D1FFF7B9FBF72178
:101C700041564D1929460B20FEF77BFED7E7FFF7AB
:101C8000AFFB818CF7E7204601F091F8606C0028EB
:101C9000CDD1832284212046FFF75AFFC7E70000F9
:101CA00083810000D0EFFFFFB0DFFFFFD001000015
:101CB000C4010000D101000010B50246A032517BE2
:101CC000102911D006DC002903D0012901D00329F5
:101CD00006D110BD112907D0122905D0132903D030
:101CE0000020FFF719FD10BD4900454B20395B5A14
:101CF0001377434A083A515A8030C18310BDF3B577
:101D00000146803104460D46A034C98BA27A81B0C9
:101D100051434E00AF6B00F016F83A480761A97CBA
:101D2000A27AC901521E1143416169691022D14151
:101D30008161207F761E310408430299090208431D
:101D400031494863FEBD70B50446A0340025607B70
:101D50002E4610281DD006DC00280DD001280BD0FF
:101D6000032806D108E0112813D0122811D0132817
:101D70000FD00020FFF7D0FC627B0120811E224C97
:101D8000002A10D0012A14D0032A19D0002D20D007
:101D900020E041001A4A2039083A565E80001B496B
:101DA00040380D58E8E7A063A163921CFF2AFAD9D6
:101DB00070BD0021A063A063891CFF29FAD970BD02
:101DC0000022A063A063A163A163121DFF2AF8D9BA
:101DD00070BD0020FFF7A0FC0020720007E041006A
:101DE0006B5EA3634B190221595EA163801C824282
:101DF000F5D80021FF28EBD8A163A163801CF9E787
:101E00007EAE001000020055400000555401000055
:101E10003D2002490004086370470000400200555D
:101E2000F8B50246403200210346044605461688AE
:101E3000703350342035874F761E8E468C463E6078
:101E40009689761E7E60866C761EBE60466C826CBD
:101E5000B21A521EFA60AE897E4A761E4032566130
:101E6000AE68761E9661AF686E68F61B761ED66108
:101E70000788784E7F1EC036376387897F1E776359
:101E800087687F1EB76347688668BF1B714E7F1ED9
:101E9000C036F7632688761E1662A689761E5662BD
:101EA000A668761E96626668A468341B641ED462B7
:101EB0001C88641E14639C89641E54639C68641EA1
:101EC00094635C689B68E31A5B1ED363AB8904462A
:101ED0001D04A034E27C012636041206AD1B1B0251
:101EE0002A43FF3B013B1A43113255252D06AA60B8
:101EF000584A237D1361584AEA6003468033554AA5
:101F00001E7EC03A002E01D0544E01E0534E803E5A
:101F10001663227A012A01D90122964610229A5E7E
:101F2000002A01DD072106E0002A13D0561C15D037
:101F30000121D2431A82A27C090512060A43714686
:101F400009040A4346490A432A616146FFF7D7FE5E
:101F50000120F8BD01218C460621ECE701229446C0
:101F6000E9E7F0B5014689B0203106460591A03673
:101F7000B27A0092426C0546520882640246803270
:101F80000746044601460892D08B928B4034801855
:101F9000A081F079B279703582188A60A0895037B3
:101FA00042008A81606842084A6020888018F2797D
:101FB000821A0A802988A068401AA989401E491CF3
:101FC00006F00AF9009906F007F968604008A86071
:101FD000A068009906F000F9089A6168928B514355
:101FE0002288891840180922B256696851432A8804
:101FF0008918401A401E3880A068009906F0ECF855
:1020000078602888A9684018B860089AD08B009A30
:1020100050434000B88105996068886021886068F5
:102020004218A189491C484324300599101848607A
:1020300064680019401E214606F0CEF8717F6043A7
:102040004018059948600599707D8881012009B084
:10205000F0BD00000001005543030060F1430001A2
:10206000C0030030012070470A4603467047FEE770
:1020700070B5FFF7B5F94030552212065168A74BED
:10208000C902A74CC90E01D11D6B2570405C247894
:102090000019186306204143A2488B00C3581363FC
:1020A000491C8B00C3585363491C8B00C35893636E
:1020B000491C8A0083589C4A1361491C8B00C358F1
:1020C0005361491C890040589061984910208863E9
:1020D00070BD10B5552000064068C002C10E032037
:1020E000FEF773FD91491020886310BD022805D0CA
:1020F000032803D08E480021886570478D48FAE791
:1021000030B5894C002280349300CD581B191D60D6
:10211000521C052AF8D3844B002140338A0084588E
:10212000D2181460491C0829F8D330BD10B52921F4
:102130004906CA680C239A43CA6002227E4B0128D2
:1021400007D0022805D0032806D00020FFF7E4FAC4
:1021500010BD5A60794801E05A607948086210BDA4
:1021600070B529225206D1680C231943D16003248B
:1021700071490123002808D0032803D00020FFF76D
:10218000CBFA70BD4C60136270BDF720C0011062C5
:1021900069480025403005601425456085604C6025
:1021A000F520C0011062F120C00110621362654881
:1021B0000861086270BDF1B50027624D82B03E46ED
:1021C000ED430097FFF70CF9044602996034781E3E
:1021D0000B0006F001FE0504070A10070D002F464C
:1021E000064608E00646009505E02F46009502E009
:1021F0000020FFF791FA54480078012804D1534891
:10220000007801281ED000264848803807600099D1
:10221000016145490E614E614D48886155221206A3
:102220002068106360685063A06890633F48E3686B
:10223000403803602369436063698360029B042B19
:1022400002D009E0434EDFE7434B0B614B618B61EA
:10225000D943116351639163A1690161E16901622D
:10226000216A4162FEBD70B505460C46062801D2C2
:10227000012000E00020FFF74FFAC02337481B5928
:10228000E90042581B021B0A1A4329235B069A6382
:102290000818A034E17F40684907490F08432649E0
:1022A000086070BD70B52E498C6B002293005B18DE
:1022B0001B68521CE41A0E2AF8D30D680346294EF7
:1022C00029225206A033C030B5421AD1CD6B264E1A
:1022D000B54216D1002C13D14C68DC778C68CD68E0
:1022E00024042D022C430D692C4304604C69E4B294
:1022F00004718869D8731463D87B00020830506376
:1023000070BD5C2111630521090351631749016008
:102310000720D87770BD002022E70000C0010055DB
:10232000640100009095001040000055C003005566
:1023300071200010D320001040000052A57F000043
:10234000057800000000F0FF6E0100006F01000042
:10235000FF0FFFFFEEEEEEEE4444444488AE001063
:1023600080C30020100410201306741920202000C0
:10237000FFB5002783B006463C463D461AE068009C
:1023800004990290085A06F0DDF906F033FD00903A
:102390000191384606F0DAF9019B009A06F07EF9C1
:1023A00005F0C8FF074604990298085AA04200DDCC
:1023B00004466D1C05988542E1D3204606F000FBDB
:1023C00006F0C4F906F016FD05F0B4FF044624211A
:1023D000049805F0FDFE3846069906F0C7FD30600A
:1023E0002046069906F0C2FDB060059806F0F0FAA6
:1023F0000146384606F0D2F9069906F0B7FD70603E
:1024000007B0F0BDFFB585B000200290F248009003
:102410001646012748000D46B04201DA012000E0CF
:102420000020FFF779F96C1C701BC01B04903EE084
:10243000002007466E4201901BE0A8198100089811
:1024400040580390A019182148430599085803994A
:1024500006F08CFD0146019806F0EEFC019038462E
:1024600006F0AEFA039906F0E7FC06F047FA0746D5
:10247000761CAE42E1DD384606F0A2FA014601982C
:1024800006F08CF91821059A61438E180146F06018
:10249000009806F041FD01D2009800E0F06800903D
:1024A000F16806F00FFD00D102940498641CA0426C
:1024B000BED8029809B0F0BDF3B5074683B07D20C1
:1024C000C0000090002001900825C448049905F040
:1024D00083FE460876007D216C423046C9004843A1
:1024E0000290BF48BF4960434018029905F07EFE44
:1024F000049A0146501A00D54042009A904203DAED
:102500002546083501910090641C082CE9DB7042D7
:102510003D6538600198F8603002284378652946A7
:102520000A20FEF726FA012005B0F0BDF0B50446FA
:10253000C068616887B0451AA16846187D20C00050
:102540000490A948009003200390642D00D26425D4
:10255000FF20F530864200D90646A44F387805F0B2
:1025600034F900212046FFF733FA6421387805F06A
:102570006FF8002802D00020FFF7CEF8387805F079
:1025800024F9002720466230029023E018200099A9
:102590007843401801907F20C005059029462046C9
:1025A000FFF78AFFE1680498814212D02046029921
:1025B00000F0DDF81222059B02990198FFF7D8FE82
:1025C0000198616D41610198E1680161E0687F1CDB
:1025D00004906D1CB542D9D3854B3A4603990098B7
:1025E000FFF710FF18214843009940180169204661
:1025F000FFF762FFFEF7F4FEE16841842068FFE622
:10260000F0B504468DB0002002907A48456828460F
:1026100006F0DEF903906800400806F0D9F9009052
:10262000FEF7DEFEFEF7DCFEFEF7DAFEFEF7D8FE72
:10263000FEF7D6FE7F232146DB051122623104A876
:10264000FFF796FE6C4D6069294606F08FFC0499F1
:1026500006F0F2FB0226F643314606F0BDF9606152
:102660002946206906F082FC069906F0E5FB314612
:1026700006F0B2F9206106F067F90546FEF7B0FEF4
:102680000584274660373978254600265B48803523
:10269000002907D001294DD0022900D03E700298B0
:1026A0000DB0F0BD0421415600292BDD20690399AE
:1026B00006F0B4FC10D22069009906F02DFC0BD86E
:1026C000E8884C49401C80B2E880C9788842E6D34B
:1026D0004B490120087048E02069009906F09EFCF3
:1026E0000ED2E8884349401C80B2E880C97888420D
:1026F000D5D32E72012038704249EE800870CEE7A3
:102700003F4831E03B48008A06F062F9616906F013
:1027100003FCC4D2E8883749401C80B2E88089892C
:102720008842BCD30120287238703649EE80087088
:102730000290B4E7042141560029B0DC2D48408ABC
:1027400006F046F9616906F069FCA8D2287A0128EA
:10275000A5D1E8882749401C80B2E880C989884211
:102760009DD33E7027482E720670EE8097E7F8B52D
:10277000254C07460E46207805F027F81B4D287893
:1027800005F023F80323092260213846FEF737FBC2
:102790006421207804F05CFF002802D00020FEF7BE
:1027A000BBFF207805F011F804213846FFF710F937
:1027B0006421287804F04CFF002802D00020FEF7A6
:1027C000ABFF287805F001F824221049304605F0C7
:1027D00099FC0120F8BD000000401C46409C000010
:1027E000400D0300005A62027C29004034010000C1
:1027F000B8AE0010801C00000000E0407011000026
:10280000740100007301000020010000003400404A
:10281000F8B50646FEF7E8FD0146FF31FF3000221D
:10282000013113301025794C0A74002E1AD0002380
:1028300014E024271E467E43754FF619378B078018
:10284000778B4780F68886808271437205721426E2
:10285000C6710E7C0A30761C0E745B1CA6789E42F4
:10286000E7D811E0002314260BE00280428082802A
:10287000827143720572C6710F7C0A307F1C0F741F
:102880005B1CA7789F42F0D84A74087CF8BDF0B56D
:102890009DB0074600F010FF04F09AFB5D4811213F
:1028A0000388027A1F2002F08DFD02F05EFE5A4876
:1028B0005A4E817D00291AD0C07D002817D0584873
:1028C00011231F2231790BAC0FC453492C22143928
:1028D0006846FDF7B7FE504820380EC80FA802F032
:1028E0004BFE4D4838220FA92038FDF7ABFE01F012
:1028F000D8FD01F081FE4B4802F08AF84A4C0146AF
:1029000020704A4A474802F0E0FA2070014601224E
:10291000444802F03CFC207042482C21415E406853
:1029200003F076FD03F0B1FF01F06EFA0546404872
:102930000168491C016000210420FEF7A1FF3D4908
:102940003D4A0B7800243D48002B0FD00C701178C5
:10295000012905D00020FFF75BFF05463C6422E01B
:1029600037490C70047000F024F8F6E7117801295B
:1029700009D10178491CC9B20170642901D200252E
:1029800001E06421017032792E492F48002A0DD1CF
:102990000A78002A0AD00278521CD2B20270042AA5
:1029A00001D90C70047028461DB0F0BD32790A7050
:1029B000F8E770B58CB0FEF717FD0446C51D102171
:1029C000F93569742646FF361A208336314603905E
:1029D0000A221031684605F095FB1A22314604A8F8
:1029E00005F090FB04A80FC805F0F2FB0121B01E12
:1029F0004180872292000F2182808901C18002815B
:102A00004181287C697C0CB0401870BD401B0000DF
:102A10008C110000341B00005C13000070110000DA
:102A200074130000580A0000A0010000A401000077
:102A3000301B0000C4010000D0010000D2010000E2
:102A4000D1010000770100007801000010B50120DD
:102A5000FF23532109064B6004220A624B620022C5
:102A60008A62CA620B630A62FD244C604C620224D3
:102A7000CC608C618A62CA620B638C68CB620A6329
:102A8000896810BDF1B582B002984030447EFE489E
:102A90000078012802D00626374601E06426374632
:102AA000FA4D641E2AD301200090287804F08DFE90
:102AB000F748007804F089FE002C01D10220009034
:102AC00000232A7819460298FEF7EFF93146287854
:102AD00004F0BEFD002802D00020FEF71DFE009984
:102AE0000298FEF775FFEA483946007804F0B0FD19
:102AF0000028D6D00020FEF70FFED2E703210620E3
:102B0000FDF737FF0120FEBD70B50546FEF7DEF884
:102B100003210520FDF72DFF284600F0F3F9DC4CDA
:102B2000207804F052FE00212846FEF751FF0621CE
:102B3000207804F08DFD002802D00020FEF7ECFD87
:102B4000012070BDF1B500252C46D24E0321052091
:102B5000FDF70FFFCD4F387804F037FE00233A78A9
:102B600019460098FEF7A1F90621387804F070FDA7
:102B7000002802D00020FEF7CFFDC54F387804F0C2
:102B800024FE06210098FEF723FF0621387804F082
:102B90005FFD002802D00020FEF7BEFD387804F06B
:102BA00014FE092D09D9BC4A00204100715AA142E6
:102BB00000D90C46401C9042F7D36D1C6E2DC9D332
:102BC00003210620FDF7D5FE2046F8BD70B5054669
:102BD000AD480078012820D006242846FEF776F874
:102BE00003210520FDF7C5FE284600F08BF9A84E0D
:102BF000307804F0EAFD00212846FEF7E9FE214680
:102C0000307804F025FD002802D00020FEF784FD76
:102C10002846FFF737FF012070BD6424DDE701205F
:102C2000704770B5044603210520FDF7A2FE984DBC
:102C3000287804F0CAFD00212046FEF7C9FE0621CF
:102C4000287804F005FD002802D00020FEF764FD7E
:102C50002046FFF717FF012070BDF3B5054689B088
:102C600020300490407E01908C4890240778012603
:102C700005212846FEF7CFFE8A2F1AD00ADC112F35
:102C800024D004DC002F21D0102F20D10CE0122FF3
:102C90001DD11BE038468B38030006F09DF807086D
:102CA000180C110E18151800002426460FE07C4C55
:102CB0000DE07C4C0BE07C4C09E07C4C0B2001E0EF
:102CC0007B4C0320019002E07A4C00E000266E4825
:102CD000012201789207012001291ED07649097846
:102CE00001293AD06D49097809295BD0862F0DD08A
:102CF000002F0BD0102F09D000900498A1B2037EB2
:102D0000686B891880B2019AFEF7F6F80621E86B25
:102D100005F062FA01293AD044E006460090049892
:102D2000A1B2037E686B89185B1E80B2019AFEF720
:102D3000E3F800210220FEF71BFA072000F0E2FA78
:102D40005149002008705D490870544801780929EC
:102D500001D0102119E0067324E006460090049883
:102D60000123427E686B564980B2FEF7C5F8002108
:102D70000220FEF7FDF9072000F0C4FA42490020C6
:102D800008704D490870454810210170E3E7012E95
:102D900008D1FEF725FB007B002803D1002102208B
:102DA000FEF7E6F90A9804F018FD0BB0F0BDF8B58F
:102DB0000446054634484035007801283ED00627B1
:102DC0003E4603210520FDF7D4FDA87A2F4D0028AB
:102DD00011D0287804F0F9FC0323092202212046AF
:102DE000FEF727F83946287804F032FC002802D094
:102DF0000020FEF791FC287804F0E7FC0323092269
:102E000002212046FDF7FBFF01232A7800212046FE
:102E1000FEF74BF83946287804F01AFC002802D057
:102E20000020FEF779FC03210620FDF7A2FDFEF746
:102E3000D7FAE06B164D002807D102E064273E4622
:102E4000BFE716480078082808D13146287804F0F2
:102E5000FFFB1C4801782046FFF7FFFE287804F0AE
:102E6000B4FC194F387804F0B0FC03212046FEF77B
:102E7000AFFD3146387804F0EBFB002802D000208B
:102E8000FEF74AFC287821E06E01000020010000D6
:102E9000340100007C0500402E020000401B0000B1
:102EA0007C2900000C180000681C00002035000080
:102EB00020360000C4200000700100006F010000F7
:102EC000B2000040020200003501000004F07DFC69
:102ED000204624221549623005F014F91448007880
:102EE00085280AD10120009020462030037E427EB2
:102EF000606B104980B2FDF7FFFFE06B401CE063A0
:102F00000120F8BD10B504460021FDF776FFFEF75D
:102F100067FAC07E002802D02046FFF707FB002199
:102F20000720FDF726FD012010BD00000034004001
:102F3000401B00002013004010B501460120FFF7A0
:102F400091F810BD10B50146042000F017F810BD2F
:102F500010B50146012000F011F8002010BD10B599
:102F60000146032000F00AF8002010BD10B501460C
:102F7000012000F003F8002010BD0000F3B583B07D
:102F8000FEF732FA0646FF360546133637460398F3
:102F90006437002401280BD0022809D0032807D069
:102FA00004286AD00020FEF7B7FB012005B0F0BD71
:102FB0003848049940690090374805F00DF90190B0
:102FC000E06BFF35029001356C742C74FF22642194
:102FD000304605F0D8F8FF220C21384605F0D3F82A
:102FE00029252E486D06286228622D4804620F218B
:102FF000C1622C4E3460AC602B48E0632748801CD3
:103000002862002000BF00BF00BF401C3228F9D357
:103010002648286201276F621E4801994161019983
:103020008161072303610399032912D00099049851
:10303000FDF74CFA2F626C620298E0631C48306026
:1030400017480421016201F08BFA1A488776C77687
:10305000ABE7049A0099521C0BD0144A2A6230BF85
:103060002C62512212061460416181610361AF60DC
:10307000E0E70E4A09322A62F2E70A487D21090197
:1030800004602920400681610321416101214161E1
:103090008BE7000000E000E050C30000A47B0000CC
:1030A0008000005200E100E0F3000000A67F000075
:1030B000E1200000CC180000F7B5002703460226E7
:1030C0003C463846491E05E042009A5EA24200DBBB
:1030D0001446401C8842F7D3FEF782F9FF300130D6
:1030E0000579FEF77DF9FF30013040792818A042BC
:1030F00001DA01260DE0FEF773F9FF3001300579A2
:10310000FEF76EF9FF3001304079281AA04200DD49
:103110000026784C0025207800280FD0012821D0E7
:10312000022804D003282CD025700127A580A08870
:10313000401CA0802078022835D037E0A580E088A8
:10314000401CE080012E09D0FEF74AF9FF30013023
:103150008079E1888842EAD2E5801CE00120207075
:10316000E580E4E7002E0AD0FEF73AF9FF3001309F
:103170008078A1888842DAD203202070D7E7022025
:10318000FBE7FEF72DF9FF3001308079A188400878
:10319000884204D22570029901200870C7E7002EEA
:1031A000C5D12570C3E72570A58001273846FEBD2F
:1031B000FEB50746FDF78AFD4E48002404704470B2
:1031C000FEF70EF92030057A68460570FEF708F91B
:1031D0002030C67968464670FEF702F92030047246
:1031E000FEF7FEF82030C47100210720FDF7C1FB77
:1031F000FEF7F6F82030C671FEF7F2F820303E4CAC
:103200000572207804F0E1FA00213846FEF7E0FB71
:103210000321207804F01CFA002802D00020FEF7D9
:103220007BFA0120FEBDF8B5334E04460027307806
:1032300004F0CBFA314D287804F0C7FA03210520B9
:10324000FDF797FB00232A7804212046FDF70BFEAB
:103250000321287804F0FCF9002802D00020FEF7B2
:103260005BFA01210620FDF784FBE06B032801D205
:103270003846F8BD05212046FEF7AAFB0321307829
:1032800004F0E6F9002802D00020FEF745FA0021FC
:103290000320FEF7F5FA22465A321121184800F0B1
:1032A00001F8F8BDF8B50027FFF706FF114C0546F9
:1032B000A0780026401CA0706078002806D0012865
:1032C0000AD00020FEF728FA3846F8BD012DFBD1C0
:1032D00001206070A670F7E7FEF782F8FF3001303A
:1032E000C078A178884201D26670EDE7012DEBD15C
:1032F0000127F9E766010000340100002001000009
:10330000DC330040F1B5FEF76BF80446D9480125DF
:10331000D949057008786034092803D0082801D0FD
:1033200081200870FEF75CF8203000278771FEF7D7
:1033300057F878218184FEF753F820300772FEF7A2
:103340004FF820304772FEF74BF88577FEF748F8C4
:10335000C776FEF745F822214170FEF741F8057661
:10336000FEF73EF81E214182FEF73AF80526067563
:10337000FEF736F820304772FEF732F84576FEF752
:103380002FF82030C671FEF72BF803260670E76091
:103390002761BA48206060606761A0601D208002DC
:1033A000A061009AB648B749130005F015FD08055D
:1033B000080F182021454C200861086213E00861BD
:1033C0000862FEF70DF8FF2191310FE0FEF708F8D3
:1033D00002210176FEF704F86421018227E0FDF75F
:1033E000FFFF20300672FDF7FBFF64210182F8BD6C
:1033F000FF2029214906C8609E48A3494570102036
:10340000886308630220FEF771FEFDF7E9FF0221E1
:103410000176FDF7E5FF9A210182FDF7E1FF8021AA
:103420004182FDF7DDFF072101759848A061FDF796
:10343000D7FF06210170F8BD0720FFF763FF8D4815
:1034400085700770F8BD086108628C482060606074
:10345000E76027616761A0608C480E38A061FDF7C6
:10346000BFFFFF21AE310182FDF7BAFF602141822B
:10347000FDF7B6FF05210175FDF7B2FF203085711C
:10348000FDF7AEFF4676FDF7ABFF2030C671F8BD05
:10349000F8B50446803462897D4B774DD11A0026F9
:1034A0009A4247D007DC7B4951186CD001293CD0A7
:1034B000022939D193E001274030012972D00B292C
:1034C00032D175490A78002A06D00E70FDF788FFC0
:1034D000FF300130477023E005460089002805D100
:1034E000FDF77EFF2030417A6248C170FDF778FF1A
:1034F000203047722889401C80B228810A2801D2D6
:103500000120F8BDFDF76CFF5A492030C97841729F
:103510002E810C2004F0C5FB0020C043FFF718FDEE
:10352000FDF75EFF162141705EE07D200001FFF790
:1035300009FD59E0A089032806D9052804D00628EA
:1035400002D0042805D04FE008212970FFF7DAFEE9
:103550004AE05249524803F004FC504902206239C3
:1035600003F097FC4D492220223903F05DFC4B49C2
:103570003E20603903F013FC03F07DFA002833D0BD
:1035800003F090FA30E0FFF761FA2873FF2153202F
:10359000000641600422026241628662C6620163E3
:1035A00022E0FFE72F7387763E480770FDF718FF8C
:1035B00022214170FDF714FFFF210F3101823A48AB
:1035C0001E2101804180FA218180C1800421017582
:1035D0004175FDF705FF782141822E7004E010212E
:1035E0002970FFF7AFFAE860668189E7F8B504460D
:1035F000FFF74EFFFDF7F4FE4078552809D0FDF7A0
:10360000EFFE012004F04DFB0021204603F048F9B5
:103610002DE027460025FDF7E3FEC07E002826D0DA
:103620003846FEF7EDFF4034204E012802D1E07FFE
:10363000832807D03078012819D11D480079002847
:1036400003D014E0307800280BD01A480078002806
:1036500002D0FDF796FF02E0FDF7DAFF012500201A
:1036600030702946384603F01BF98520E0770120A9
:10367000F8BD00006E010000401B0000CCCCCCCC9B
:103680000000F0FF40000052C003005530740000FD
:1036900004080000FFF7FFFFD001000036AF001064
:1036A0000F020000CC0100005C1B0000960100002E
:1036B0007011000095010000F8B5E830194D112790
:1036C00004461C2104F086FD002250002B5E216878
:1036D000C918216040192426865F636899196160C2
:1036E00048210E5EA3689919A1606C210E5EE36803
:1036F0009919E1600146803110268E5F23699E4250
:1037000001DD1023CB5EA03023611423C35E616909
:103710008B4201DA1421415E521C6161BA42D4DB52
:10372000F8BD0000483400407047FC492320087071
:10373000FB49162008707047FFB5FA491F460C79FF
:10374000F949FA4A09788BB04B00D15A022C30D093
:103750009A1892880D469446079224225043F44AC0
:103760000D9B861818200022305E9A5E831A00D5C1
:10377000131A009300231A24FB5E345F9E46E31A5B
:1037800001D573461B1B009CE4180C9BDB0723D060
:10379000484362438018091904F028FD0D990880F8
:1037A0001A210020715E385E6943604308182919A8
:1037B00025E04A0091B295B2CFE76431002800DAE3
:1037C000981A584364235A43801804F00FFD149943
:1037D000088000200FB0F0BD614648436243801866
:1037E000091904F003FD0D9908801A21715E0798EC
:1037F00041430020385E604308180799091904F016
:10380000F5FC3880149806220023B25EC35ED01AFD
:1038100001D40146D1E7991ACFE7F3B5C54885B081
:103820000078002802D0002007B0F0BDC248C34C89
:10383000C27D0292007E0390218D00911F2100988D
:1038400004F0CAFC0746608D1121019004F0C4FC0D
:10385000064605980024045F06980025455FB64992
:10386000192008560099029A4908002A28DDBC420E
:1038700004DAE01B50438011C01910E0009A121BBB
:10388000BA4207DAD11B029A009851438911C9192B
:10389000401A04E00A1B504304F0A8FC001904B2CB
:1038A000A5491A200856A549039A498D4908002AB6
:1038B00024DDB5420BDAA81B50438011801917E0B4
:1038C000BC42EDDB009AD21BA242E3DAE8E7019AA0
:1038D000521BB24207DA911B039A01985143891196
:1038E0008919401A04E04A1B504304F07FFC401938
:1038F00005B2059804800698058094E7B542F8DB88
:10390000019A921BAA42EEDAF3E7FFB587B00D46A3
:1039100014461E46119F079805F052F8009028465D
:1039200005F04EF80190204605F04AF80290304626
:1039300005F046F80390109805F042F804903846D8
:1039400005F03EF80590BD4210DD1098001B05F013
:1039500037F80546B81B05F033F8294604F01EFF7A
:103960000546009905F002FB01990FE00798201A1F
:1039700005F026F80746701B05F022F8394604F0DA
:103980000DFF0546049905F0F1FA059905F054FA82
:1039900007462846029905F0E9FA039905F06AFB03
:1039A00006466800000E0FD00121284605F014F8E5
:1039B00004463146384605F069FB214604F0EEFE28
:1039C00004F09CFF0BB0F0BD2046FBE7F0B50546C8
:1039D0000E4685B01446981B04F0F2FF0090049048
:1039E0000A992846684349430746C81B04F0E8FF84
:1039F00001900B98801B04F0E3FF02902046604387
:103A0000381A04F0DDFF0146029805F0AFFA0746C8
:103A10000199009805F0AAFA394605F00DFA0090D0
:103A20000B98301A04F0CCFF0190601B04F0C8FF23
:103A300006460A98049F401B04F0C2FF0146384620
:103A400005F094FA05463146019805F08FFA2946AB
:103A500005F0F2F9012104F0BFFF01464000000E1D
:103A600006D0009804F09AFE04F048FF05B0F0BDBF
:103A70002046FBE770B50022069E049D059C0028A9
:103A800002D01E2807D00CE00020285E002800DAB3
:103A90002A801A8005E00020185E002800DA1A80CB
:103AA0002A80002908D0102905D10020205E002896
:103AB00000DA2280328070BD0020305E002800DAFB
:103AC0003280228070BDF0B59446164A00261C4C08
:103AD00055693346E756CA5C3F187F00EF5F5B1CB1
:103AE0005743BE195BB2042BF4DB4200AA5E0B798C
:103AF0005A4396190523E718203F1F22BA56171874
:103B00007F00CA5CEF5F5B1C5743BE195BB2092B99
:103B1000F1DB6046064130B2F0BD0000B1010000AB
:103B2000B20100007011000073010000141C0000BD
:103B30008C110000CC010000841B0000580A00001A
:103B4000A9010000FFB5044689B000200890FF4895
:103B50001F46017820460E4604F03EFB05467043A2
:103B6000201A86B2601E0A990090601C01900029FC
:103B70001FD0F84A0321515604230919D356F4489B
:103B80001A194069009B64001B04045FDB0B079457
:103B9000019FC45A12046B469C81D20B89B2825A8F
:103BA0001A824900415A3F049982F90B405A1883FE
:103BB00038E07A7A39462046FFF785FF079000986B
:103BC0007A7A80B23946FFF77EFF014668468181E6
:103BD00001987A7A80B23946FFF775FF0146684648
:103BE0000183DA487A7A00783946201A80B2FFF7E2
:103BF0006AFF014668468182D4487A7A007839465D
:103C0000201880B2FFF75FFF01466846018206AACE
:103C100003A904A86C4607C405AB71B268B2079A41
:103C2000FFF728FF0B98CC4CC00749D06A461421F7
:103C3000515E1020079B105E994203DD0B468142C6
:103C400000DA0346994210D183420ED1E8000019F0
:103C5000C1681298002D016004D0C0480078401F50
:103C600085424ED101200DB056E7BD4A0746927AF3
:103C7000002A09D0E8000019426901970092C26841
:103C80004068FFF7A3FE08E0E800001942690197C9
:103C90000092C2684068FFF738FEB249002801DA96
:103CA000002002E0884200DB08461299002D0860DF
:103CB00004D0AA480078401F854201D10120089015
:103CC0000B9880074CD56A460C21515E1820079B43
:103CD000105E994203DD0B46814200DA03469942A9
:103CE00011D183420FD1F000001981681398002E82
:103CF000016004D095480078801F864201D10220DF
:103D0000B1E70020AFE7964A0746927A002A09D029
:103D1000F00005192A69019700922058AA68FFF758
:103D200055FE08E0F00005192A6901970092205815
:103D3000AA68FFF7EAFD8C49002801DA002002E0BA
:103D4000884200DB08461399002E086004D07F48A3
:103D50000078801F864203D10898801C00B208902A
:103D6000089880E77CB50D462421164648437F49D4
:103D70007E4A095A82181D201056302250437C4A30
:103D8000C9058418E08800290196009524DA794B4A
:103D900001220021FFF7D6FE002801DB012807D110
:103DA000019600950122E088724B1146FFF7CAFE8A
:103DB000704B01960095E0880A3302220021FFF73C
:103DC000C1FE002801DB02281DD16A4B0196009537
:103DD0000A33E088022213E0664B03220A3B0021EB
:103DE000FFF7B0FE002805DB012803D0022801D030
:103DF000032808D15F4B01960095E0880A3B032217
:103E00000121FFF79FFE7CBDF0B5ADB000202790EB
:103E100001202590FDF7E8FA0546FF30013000212A
:103E20000174064641746846017241725248FF357A
:103E300000781335002874D0504800272690384663
:103E400024214843494923900C5AFF200230009412
:103E5000044211D0600602D54820A0430CD1684628
:103E6000007A3F4929908978884206D3204640222B
:103E700010433E49239A88522BE2414804420DD018
:103E80003A4823990818028B69468A80428B20A9F8
:103E90008A80C2880A82807F259044E160054BD5E4
:103EA0003249239844181D20205630214843304978
:103EB0004018C088C1B225482291017828912A91E2
:103EC000229804F089F92A9902464A432299891ACC
:103ED000C9B200280AD0214A1278D21E904205D0D9
:103EE000002903D02898C01E81420ED161691F4865
:103EF000002908D00121009C89028C4320210C4319
:103F00002399445216E0012009E01F4A1D49127806
:103F100060698918097D154B884203D2401C606195
:103F2000D7E175E20121009C89028C4320210C43DA
:103F300023995C52012025900C49239841181D209B
:103F4000009108563021484309491FE0B2010000A2
:103F500070110000A901000048B10010B10100007B
:103F6000401B000011760000844100008C1100000D
:103F7000000E000062B2001075010000780A000017
:103F80000C0A00005C1B00007301000041180A20AD
:103F90002291085E2C90C0B227900620085EFE4950
:103FA0002A9009782B9104F021F9C1B22B9A28911B
:103FB0002A985143401AC0B22A90E0050AD42298A8
:103FC0008089400706D42C9804283EDC229840695A
:103FD000C8283ADA21AA01A93846FFF7C3FE00280B
:103FE00020DA22988089400713D52898EB49C00031
:103FF000269A4018C068527D10416A4690802A98DF
:1040000020AAC000401826998068897D08419080C8
:1040100016E02298018D684681802298418D20A863
:1040200081800DE026986946427D0420085E10419B
:104030008880269820A9827D0420085E104188800F
:10404000E0050AD50220259007E02298018D6846F8
:1040500081802298418D20A8818021A901A8FFF7A5
:10406000DCFB68460421415E002902DA0020694633
:104070008880CB496B460422088D9A5E904201DC11
:10408000401E988020AA0420105E002801DA00203B
:104090009080488D0421515E884201DC401E908052
:1040A00022984169BF4800784200BF48805E091AE3
:1040B00009114000081800B220A90882FF2800DD7D
:1040C000FF20088200994969012918D000998A893E
:1040D0000A8200990A898A810099CA894A820099CC
:1040E0004A89CA8100999A884988511A009A11818F
:1040F000009920AA89889288511A009A5181042136
:10410000595E009A20AB518004229A5E009B9A80EF
:10411000A30608D5009B198300994A830099C8809B
:10412000009925988877A14823996A460918229111
:104130001820085E0423D35E8446C01A1A23CB5E7F
:1041400020AA0421515E4043591A494341180020D6
:10415000220701D5102022E0A20601D504201EE08E
:10416000259A012A1BD18F488F4A007810182030D9
:1041700080794043884209DB2298C07F400705D5FB
:1041800060466946888020A98B80E7E724A80090D4
:1041900021AB01AA21463846FFF7CEFA0820844910
:1041A0008A78002A02D1CA79002A52D029990C2390
:1041B00059436A4602AB9288C9184A8020AA91885E
:1041C0006A46127A0C235A4302ABD218918020AA75
:1041D0001021515E6A46127A0C235A4302ABD21860
:1041E000D180002901D1002300E0279B6A46117A83
:1041F0000C22514302AA89180B8102220146114365
:104200006A46127A0C235A4302ABD2189172E10526
:1042100001D5022200E001226946097A0C235943A4
:1042200002ABC918CA726946097A0C225143C918EF
:104230000F7369460A7A521C0A72210736D52299F1
:1042400000200883229948832299C8802299887780
:104250003DE0420702D50A7A002A09D0C20602D5FB
:104260008A7A002A04D00207E7D5497A0029E4D1E6
:104270006B469A8829990C23594302ABC9184A8086
:1042800020AB9A886B461B7A0C214B4302A9591824
:104290008A8020AB10229A5E6B461B7A0C214B431E
:1042A00002A95918CA80002A9FD19CE769468A88CA
:1042B00022990A8320A98A8822994A8320A90A8AF6
:1042C0002299CA802299259A8A7702210843229945
:1042D000C8777F1CFFB20C2F00D2B0E535490879B2
:1042E000002811D02E4A0020138D02AA08E00C24C9
:1042F0004443A4186788DF1B7F1E401C6780C0B240
:104300006C46247A8442F2D84879002812D0244A94
:104310000020538D02AA09E00C2704467C43A41810
:10432000A788DF1B7F1E401CA780C0B26C46247A82
:104330008442F1D8C87800280FD0002002AA08E0F3
:104340000C21414389184B888C884C80401C8B8001
:10435000C0B26946097A8142F2D81748C06B022878
:1043600018D9FDF741F8FF300130047CFDF73CF827
:10437000FF300130407C20180CD0104C6421207894
:1043800003F066F9002802D00020FDF7C5F9207877
:1043900003F01BFA0A4815E0B201000048B1001012
:1043A000580A0000730100005C1B00008C11000023
:1043B000941C0000401B00008C1800002C01000021
:1043C000CC0100000078002820D102F088FF694667
:1043D00000200A7A18E00C21414302ABC9184B882F
:1043E0002B808B886B800B4B1B68AB800B89AB7170
:1043F0008B7AEB71CB7A2B72097B6972317C0A352F
:10440000491C401C3174C0B28242E4D81020305E96
:104410002DB0F0BD94190000FCB512200090424868
:10442000404F0078162541004048414C0818408A0A
:10443000019000203C4E41003678CA190023B64650
:1044400076001946B44605E04E00965F002E00DD6A
:10445000F3184919A142F7DB01998B421ADB334962
:1044600066467618F6887144897B5E430E41B646EF
:1044700000210DE04B009C46D35E002B07DD764605
:10448000734501DB9B1B00E00023664693534919EB
:10449000A142EFDB401C0099C0B28842CAD3FCBDE8
:1044A0007047B9E7F8B51F4811245C3886461F20CD
:1044B00084461D481627007841001C480818C08A09
:1044C00000900020014679434A00714653180021AC
:1044D0000A4655005D5F002D00DD6918521CD2B2FE
:1044E000A242F6D3009A914216DB0F4A0F4D16787E
:1044F0007200521952894A43A919097C0A410021C4
:104500004E009D5F002D03DD954201DBAD1A9D53EA
:10451000491CC9B2A142F3D3401CC0B26045D1D3FB
:10452000F8BD0000D829004073010000201C0000E5
:10453000AA02000000201749174B087048708870C5
:1045400001221A70154A1080154A1080154A107001
:10455000C870087148718871C87113490870704734
:1045600010B5FFF7E7FF11490020087020310872ED
:10457000C88000F00DFF00F01FF8FCF737FF0C4972
:104580000C4801F0D0F8FFF7D0F800F037FE02F049
:1045900044FD10BD7201000093010000400A0000BC
:1045A000B4010000CC010000CD010000EC180000B7
:1045B0003C1C00005C1B0000FD48FC490160FD49FB
:1045C000C160FD490161FD494161FD49C161FD498C
:1045D0008161FD49CA880285098941851F212030F2
:1045E000417411218174042141758175F7481621A8
:1045F0008180F7490160704710B5F44AEC4806CA5B
:1046000082604160F349F44B097804244A00D218CF
:1046100092888285F14A1288C285F1480457F14890
:104620004318F14819790278E1482030022C01DB67
:10463000002A0BD0ED4C2478012C01D0002A05D0A3
:104640000122C27401753C21017410BD9A79F8E70A
:10465000F7B50021EEB00E918646144606910491FE
:104660000D46039107910846302250437246844616
:1046700082189089C0073DD056894F005CABDE534D
:1046800053698F0040AE0593F351D6699369CF000B
:1046900010A8C0190B960A9348C0566A136A28A836
:1046A000C7190996089348C7937862A84354D378EA
:1046B00068A8435463467046C35C65A84354537866
:1046C0006BA84354059B069F5D190A9E0B9BF61928
:1046D0000E98069643410E93049F089E099B0398EB
:1046E000F61943410496039352890798101880B233
:1046F000079003E000204B005CAAD052491CC9B2CD
:104700000C29B0D36F99002089780CE06F9A830050
:104710009A1853794CAE5B1E3354127954AB521E27
:104720001A54401CC0B28142F0D800207EE04CAE4A
:1047300054AB325C1F5CBA4276D09446BE465300FE
:104740005CAAD75A764672005CAEB65ABE195CAF08
:10475000FE520023BB526246920040AB9E58734605
:104760009F0040ABDB59F61840AB9E506246D30029
:1047700010AAD21809937646F3001768526810AE53
:10478000F6180A9348CEFF187241099B10AEF31831
:104790001F605A60099B28AAD2180A9B28AFFF18ED
:1047A000166888CF5268F6187A41099B28AFFB1823
:1047B0001E605A6062AB624676469A5C9E5DB2426B
:1047C00001D262469E5468AA63467646D35C965DE3
:1047D000B34201D26346D65465AA63467646D35C9B
:1047E000965DB34201D96346D6546BAA63467646BA
:1047F000D35C965DB34201D96346D654421C10E0A7
:104800004CAB54AE9B5C365CB34202D14CAB1F5CEC
:104810009F5454AFBB5CB34202D14CAB1E5CBE5440
:10482000521CD2B29142EBD8401CC0B2814200D996
:104830007DE7002020806E486080002063215CAB13
:1048400040AE42009A5A002A0BD02788BA4201D9BA
:10485000228001466788BA4203D262808200B25841
:10486000A260401CC0B20C28EBD363293CD0880066
:104870003058606068A8405CA07362A8405C2073F8
:104880006BA8405CE07365A8405C6073EB172A4638
:104890000E99069803F0FEFB454F20377A7D03F012
:1048A00093FB06B226822A46EB170399049803F07D
:1048B000F1FBBA7D03F088FB02B262820798208088
:1048C0003B486560002E01DA002103E0018D8E4235
:1048D00001DB491E2182002A01DA002003E0408D1D
:1048E000824201DB401E608271B0F0BDF0B5414BE9
:1048F00000241D785E7827E02F19BF00FF187F790C
:104900008F421FD12C1964B2A500ED180626AE5FA8
:10491000964200DAEA80002C13DA9C781E2C10D222
:10492000A400E418E2809A789200D2181071987866
:104930008000C01841715878401C58709878401C0D
:104940009870F0BD641CE4B2A642D5D8E5E770B516
:1049500030256943C46830396118048908255443F7
:10496000E418CC800024E4430C8101248C818A70FB
:104970000A700A71CB704B704B71455F5E005543F6
:104980006D004068AD19405F1B4DD200521948615F
:10499000D2684243D617CE618A61DA005219926812
:1049A0005043C2174A6208624C8170BD0C0B000074
:1049B000580A0000000E00004010000058100000CF
:1049C000F010000070100000401B00009801000073
:1049D000D8290040730100005C1B00007A01000030
:1049E00070110000781C00009201000077010000A7
:1049F0002F750000900A000078B200100022F949DB
:104A0000012803D0887808704A7070470A70FBE765
:104A1000F0B50446A9B000200B9020890025C0B253
:104A20001C9020462030817C8A1CD6B22268511806
:104A3000C91C26916169209121691191E9498D7004
:104A4000417C2591807C2490BB212068FBF798FD58
:104A5000002081002269401C55506269C0B2555047
:104A60000628F6D300203021414300220C31E368B0
:104A7000401CC0B25A520C28F5D3002093E10846DE
:104A80001C9962684843400010182890119920989A
:104A900020911190002001468300119A401CC0B261
:104AA000D1500628F8D3099926987143401E08185A
:104AB0001F9000206EE11F984900401C1F9028980D
:104AC0002E2209180020085EA25E82427EDC0A9B2C
:104AD000209AD3185A78002A78D11C9A1E2752009F
:104AE0008D1A0E922A46203AD75F8742EEDC0022CA
:104AF000AA5E8242EADC0222AA5E8242E6DC0A4622
:104B0000203A1E25555F8542E0DC02228A5E824201
:104B1000DCDC01259D700E9A1E2752181346203B9F
:104B2000DF5F8742D2DC0A9F119BDD550E9BC95E79
:104B30008142CBDC0A9B1199C9184D700223D35EC8
:104B40008342C3DC8D700B980C287DD2401C2790CB
:104B5000C0B208900B98E1683022504308180B90BF
:104B600001200F90A16909980870E1690A980870FE
:104B70001F990898087000250898FFF73FFF08A9BB
:104B80000EC92046FFF7E3FE03E0802801DB05465F
:104B9000F1E0A0693246415D1D91E069415D2191DE
:104BA0001D991C98269B48432199400049004118B3
:104BB000606808181D994A43219959185118002214
:104BC000825E6D1C0D922DB20E9A00E0DFE0821A1B
:104BD00013920E9B8F191B189C461493831E801CE6
:104BE00016901593481E8B1B0290491C901E039132
:104BF00017906046801E189060460197801C1A909E
:104C0000581E0093921C0490781E5B1C19927F1C06
:104C100005A989C1002007462290B900684640587E
:104C20008C46017800290ED0089881420BD062464C
:104C300013A880580022825E0D98824200DD024651
:104C40000898FFF753FE00E09DE0614613A8415825
:104C50000020085E0D99884208DD604669460858C4
:104C600001780898814201D0012022907F1C7FB2F8
:104C7000082FD2DB229800287DD181006A46525845
:104C80001378002B73D113AB5B5800219C46595EFF
:104C90002E23E35E99426ADB0D9B994267DC0899FB
:104CA000117051490A5C1D9951184BB2A2690F99B4
:104CB0009E4653544D490A5C2199511849B21B91A3
:104CC000E3690F9A99540F996346491C09B20F91F1
:104CD0000B99002249699A5E73468A180B994A61BA
:104CE000DA0043496346511800229A5EC9680B9F57
:104CF0005143BB69CA17FF69C9180B9B7A41DA6136
:104D000099611B990023CA0039490B9F51186246CB
:104D10008968D35E59433B6ACA177F6AC9180B9BDF
:104D20007A415A6219620B990B9A4989491C51813F
:104D30000B9902228A567346724500DA8B700B99E2
:104D400000228A567146724501DD0B9A11700B994B
:104D500003228A561B998A4201DA0B9AD1700B9969
:104D600001228A561B998A4201DD0B9A5170401C20
:104D700040B2082881DB0F98854200D005E72798CC
:104D8000C0B20B9003E02598099024980A900A98E5
:104D9000401CC0B201460A902498814200D28AE6A3
:104DA0000998401CC0B2014609902598814200D262
:104DB00065E6104A0B49E068FFF74AFC0B9829B0FA
:104DC000F0BD30B53024D3686043C0180624045FBA
:104DD00052686300D55E4B00D35EAB420CDB0481AE
:104DE000C18030BD900A00007C01000084010000F9
:104DF00078B20010400A00000824045F002C03DB96
:104E00006400125F9342ECDD0181EAE7F7B5844666
:104E10000C4602983025C368614630206C434143FC
:104E2000A646CA18E418506965694019506190692E
:104E3000A669D569E76986197D419661D561106AD1
:104E4000266A556A676A86197D4116625562D0895D
:104E5000E5894019D081108A258A4019108250892D
:104E60006589401950819089A58928439081002047
:104E7000A0810220022510566557A84200DA9570DD
:104E80000325032055572056854200DAD07070461E
:104E90005D561856854200DD5854012101205156B7
:104EA0002056814200DD507006216046615EC0B22E
:104EB000029AFFF786FF0821615E002904DB604645
:104EC000C0B2029AFFF77DFFFEBDF7B58CB00C981B
:104ED0000C460C9A0021C5682032C348099209E0AB
:104EE0008A00121813795B1E137153795B1E491CDB
:104EF0005371C9B282788A42F2D8D1E00020844648
:104F00001079302148434019418950793023584362
:104F100040194089081881B20420105604900520D9
:104F200010560590012032E0AF4A83009A18137999
:104F30003026069373435B195E89537930270793B4
:104F40007B435B195B89F3189BB28B4208D21946ED
:104F50000423D35604930523D3568446059314E0C3
:104F60008B4212D1049E069B9F4FB3420DD1059EEA
:104F7000079BB34209D10623D35E62469200D21941
:104F80000626965FB34200DAD380401CC0B2964A30
:104F900093788342C8D86046810010460918009172
:104FA000042605208E570856019086420BD11046E4
:104FB00082789200121813888B805288CA80817878
:104FC000491E81706CE00C98019B42683020704350
:104FD000302741197B430620085E5B190627DF5FF7
:104FE00040009C46105E7B00D25E904200DD104681
:104FF0000A228A5E039262460A23D35E0493099AC8
:105000000623D27C784F42430998007D02410098E4
:10501000C35E9A4213DD0C984969808D81420EDD92
:105020006146496981420ADD03990498411809984B
:10503000007C814203DA6D480078002825D0314693
:105040000C9A0198FFF7E2FEB97800988900C91917
:105050000A8882804988C180641EB878E4B2401E04
:10506000B87001990020CAB20BE08100C9190B7910
:10507000B34200D10A714B79B34200D14A71401C4E
:10508000C0B2B97881420BD9EFE7B97800988900AE
:10509000C9190A8882804988C180B878401EB870D2
:1050A000514A9078002800D028E72746002613E0D0
:1050B00030207843401901908089C00708D109E069
:1050C0003020704340198089C0070CD0761C76B21E
:1050D0000C2EF5DB7F1CFFB20C2FE9D300200E99BC
:1050E000074608604EE03020704340193022019995
:1050F000FBF7A8FA00200199761C888176B2E9E7CF
:10510000302078434619B089C00739D072690192BE
:105110000492D317F169B06902F0BCFF099A527D7D
:1051200002F052FF01B2318502910391049A716A33
:10513000D317306A02F0AEFF099A927D02F044FF65
:1051400000B270850399002901DA002105E00C996D
:10515000029A098D8A4201DB491E3185002802DA54
:105160000020708505E00C99498D884201DB491EBD
:1051700071850E9801680198814201DA0E990860E4
:105180007F1CFFB2A742BBD320460FB0F0BDF0B5E5
:105190000546084616490978002923D0154B4900D1
:1051A000CB180421595E144B1B68994201DD002A7B
:1051B00018D000221746302113464B431946EC689D
:1051C0000C31665AF60709D09E1CA657E3569E423C
:1051D00004D1022802D3401EC0B26752521C52B200
:1051E0000C2AE8DBF0BD0000900A000092010000EC
:1051F000730100005C1B0000A4010000584800215E
:105200008170491EC1700171417181710A21554A35
:105210000E230161D380917353498A8902810A89DF
:1052200042810988818151490988C1817047F0B55F
:105230000146002001291ED00021494C4C4A4D4D09
:105240002170012724234B43D65AF6050ED59E180C
:105250001D23F356302673435B190A269E5F042EE6
:1052600004DC5B69642B01DC01202770491CC9B296
:105270000C29E7D3F0BDFFF7C1FF0020F0BDF0B56A
:10528000012817D036493C4E0B461C6905258F78FE
:105290005D5734480A22641C36780023002F0AD058
:1052A000012F2BD0022F05D10C61002D2EDB012008
:1052B00088700B61F0BD0C610624002D04DB012514
:1052C0008D70C4808273F4E72C4B1B78002BF1D0D7
:1052D0000223002E8B7004D01821C1808273428279
:1052E00004E0C480FF218273913141827D211E48F8
:1052F000C9000161018822484181F0BD0B61002D88
:10530000FBDA8B700E21C1808273F0BD1C4C2579B5
:10531000002DFAD1002E8B7003D01825C580827322
:1053200004E00E25C5808273FF22913242820E482E
:105330000A8982814A8902818A8902800B4DCA8941
:105340002A80104A0261104A127880182030007AB0
:1053500060810E4A052010724B70F0BD012070472D
:10536000DC010000201C00003C1C00005C1B000055
:105370008C110000000E000074010000920100007A
:1053800070110000B80B000073010000341B000016
:1053900010B50020C14905220446D2014300001D7A
:1053A000CC529042FAD33821BD4802F013FFBC48DA
:1053B000012120308174C47444758175C175B94868
:1053C000017010BDF0B5B54CB74DCE0700D0491CEB
:1053D000C9B2484300210CE04E00AF5F9F4201D9A3
:1053E000002704E0A75BFFB2974201D27F1CA753BE
:1053F000491C8142F0D3F0BD7047F8B5AB4FAC49C2
:1054000038680126884207DDB989FF22D2329142ED
:1054100002D9A8488676F8BDA14C00252034E57451
:105420007A68082381180A20FB5E385E9C46C718FC
:10543000A14B1B78002B0AD0002905DA9F48C068D1
:10544000824201DA012000E00020E07420E0C90F70
:10545000E1749A491023CB5E9A420ADA1223CB5E9A
:105460009A4206DD897D7F434943B94201DD3C28EC
:105470000CDB02466146424349438A4208DA9049BE
:1054800000228A5E904203DD3C2801DAE67405E0E2
:10549000E07C002802D1207D002816D0A575607D13
:1054A00000280DD0E07C874F00280BD0FBF798FF39
:1054B000222141706575257583483E700580F8BDD1
:1054C0006675F8BD3D706575F8BD6575A675F8BD66
:1054D000F0B587B01F21039111218E460421415E52
:1054E000002604910221415E162001960096069046
:1054F0000591764835463446B446314602900698C2
:10550000484342000298171800225300FB5E1846D9
:10551000A34201DD1C4602E0604500DA8446049B9C
:10552000984203DB36186D1CADB209E0059B98422A
:1055300006DC009B1B180093019B5B1C9BB2019334
:10554000521CD2B27245E0D3491C0398C9B28142C1
:10555000D5D3564861464481018100990660416077
:1055600085810199C18107B0F0BD10B55848FFF79A
:10557000AFFFFFF742FF10BD0FB4F0B58BB0554B36
:105580000893229A544B09931F99444B03930C6838
:105590004968209F611818AC247D11ADA4002951E1
:1055A00018AC0023247D0521661A76B2002E01DA9C
:1055B0000C3676B2B600AE59F6184B1CE3185BB247
:1055C0000C2B01DB0C3B5BB29B00EB58F31A491E22
:1055D0000906090EE8D1641CE1B218AC21750C294A
:1055E00001D3002121753D49097800290CD02F4CA9
:1055F0000A21615E304C324D247864002C5FA14258
:105600000DDD382211A903E0002F08D038222946E9
:10561000FBF718F80BB0F0BC08BC04B018473049D1
:105620008B4202DA012118AB9975D10701D0511CC8
:1056300000E01146C9B20691D10701D0511C00E02B
:105640001146C9B28E46002124E0069B089C4B43BC
:105650005B001C19A446039C1E1973464B435C0057
:10566000099BE3180793002310E0194F5C00355B9A
:105670003F7ABD4208D3079F65462D5B3F5BEF1B1A
:1056800065462F53002535535B1C9BB29342ECD3E8
:10569000491C89B2219B9942D7D3B2E7202500400B
:1056A0003C130000C4010000C4200040741300003B
:1056B000A0860100CC18000073010000841B0000CC
:1056C0005C1B000093010000B4010000D8290040D9
:1056D000341B0000681C00400C18004095010000BD
:1056E00018FCFFFFFE48FF4902884A8042888A80F2
:1056F0008288CA80C2880A8102894A814089888159
:1057000070471722F8485142017049114170152124
:105710008170C943C17016230371491C4171012175
:105720008171C271704730B50446F14AEF480023D9
:1057300010601371581E5071D360012013611072F4
:1057400005209071EB48D3710D460078EA4928187E
:105750002030007A5081937620880880E749002025
:1057600024224243401C8B520C28F9DBFFF7C9FF6F
:10577000E3480460E3480560FFF7B4FF30BDFEB5C1
:105780000022134669468B54521CD2B20C2AFAD31B
:10579000FF2600228436D94C012724235343E55A9F
:1057A000354203D01B1920331B78CF54521CD2B280
:1057B0000C2AF2D300280AD009200A5C002A04D05F
:1057C000401E40B20028F8DA08E0C0B2FEBD0A5C14
:1057D000002AFBD0401CC0B20A28F8D30020FEBD2E
:1057E000F0B50446C84887B00778C848C14906786C
:1057F000BF48774345696000285E059009784A00F4
:10580000C0490968511804228A5E90427EDA314606
:10581000204602F0E1FC701CC9B284420BD070003B
:10582000821EA24207D03A1A531CA34203D0BB1BCC
:105830009B1EA34201D103230BE0A04206D8A24243
:1058400004DD012902D9B61EB14201DB052300E0C7
:105850000823002007466946A34A1256121952002F
:10586000AE5E42008E52002E00DA8F52401CC0B253
:105870000828F1D3059808820020024601E002467C
:105880000AE05400661802270D5FF75FBD4201DD94
:105890000F537580521CD2B2082AF2D3401CC0B2FA
:1058A0000828ECD3082B1ED0924896490078096846
:1058B00080004418052B68463BD00C210A22415E2B
:1058C000825E102389180E22825EC35E491CD018A6
:1058D0007D22D200504302F07FFC216A814226D80B
:1058E000012007B0F0BD084600210222415E825E21
:1058F00006238A180421415EC35EC8181118684641
:105900000A220C23825EC35ED21800E00FE00E2351
:105910001024C35E045F491C181910187D22D200A0
:10592000504302F059FC7A4909688842D8D20020D5
:10593000D7E706210822415E825E0E2389180A22DB
:10594000825EC35E89180C22825E491CD218102325
:10595000C35ED0187D22D200504302F03DFCA16905
:10596000BCE7F1B56249042008568AB008900C28BB
:105970007EDA0024242061496043085A002803D0BD
:10598000641C64B20C2CF5DB0A9830214843614951
:10599000062745185D48EF5F01783846009102F010
:1059A00025FC46B200987043381A40B20290544821
:1059B00001685048007842005318002E0CDD52490F
:1059C0000978491F8E4207DA0299002904DD0F4643
:1059D0000099891F8F4202DB0899002909D0042110
:1059E000595E6F698F4231D3414E3069002803D030
:1059F00005E00C21595EF4E7474800683061052056
:105A0000305600280CDA2046242148433B49747163
:105A1000424A0A52F079002807D10120F07104E0CF
:105A200002222420354960430A520020FFF7A7FED6
:105A30002421324A6143891820310870FF209130B7
:105A4000874202D3B07E401CB0767FE034490979AA
:105A500000290DD126490A23CB5EBB4208D829492B
:105A6000042309685218D35EBB4201D30A2200E026
:105A700084E008182030AA5E807A82427EDCE888C2
:105A8000FFF7AEFE00287CD0194F0622AA5E796986
:105A90005200895E0A22BA5E914272DB20462421BE
:105AA00048431649802206900A5212481549007848
:105AB000096882005218164B12691A600122194BAC
:105AC000002E1A7031DD104A1278921F96422CDA9D
:105AD000029A002A29DD0D4B1B789B1F9A4223E076
:105AE0005C1B0000F0010000A9010000CDAB3412E6
:105AF00070110000730100007A0100008C11000099
:105B0000BC010000C0010000B1010000B2010000B2
:105B10008C010000000E0000301B0000010400009A
:105B2000941C00009101000003DB400040188189B3
:105B300001E04000095A7981FFF75EFC0120FFF780
:105B40001EFEFA4A06998918203108702420444321
:105B5000F6480A992018417701214161002101810D
:105B600041818181C18101824182298D4180698D7C
:105B700081806969C180EE48017900E001E0491C3B
:105B800001710BB0F0BDF0B52421E84A48438418F8
:105B900061693023491C61610021C9436177115A51
:105BA00099430123DB02194382230E461E40E04B3A
:105BB00011521D796D1E6DB2002E03D000211152BD
:105BC0001D71F0BD8126B6000F46374220D0217FDF
:105BD000D94F491CC9B22177D64C3F782468E419C3
:105BE000247EA142EDDB115AB14311524C0609D576
:105BF000002111521D711A2018560028E1DD401EA7
:105C00009876F0BD0824214311520220D871F0BDCE
:105C1000CD070123002D01D0042503E0CD05F6D5E5
:105C200001256D02294311522377F0BDF1B594B0DF
:105C3000149C2420BD494443085B832212019043F5
:105C400008538207BA4B0B9005201856119018463E
:105C5000C0790F90042018561090401E40B20E904C
:105C60001A2018561390401E40B21290084625186C
:105C7000002A33DA1D22AA5630204243AF481018BA
:105C8000426918461823C35E9A4221DB6A69521C96
:105C90006A61119B002B12DB83799A420DD30A5B58
:105CA00002239A4321231A430A53A54A64211170FF
:105CB0000F99002901D10121C17115B0F0BD0A5B16
:105CC00002239A439F4B1A430A5314994171EFE7F9
:105CD00000220A53E8E012998176EEE70B9801065C
